:100000004CC070C09CC06EC097C46CC06BC06AC04E
:1000100069C068C067C066C065C064C063C00600D0
:10002000FF0901A101150026FF00750895010900CF
:10003000B20201C00902220001010080320904005D
:100040000001030000000921010100012216000740
:1000500005810308000A1201100100000008C01603
:10006000DF05000101020001100344006900670080
:1000700069005500530042001C03640069006700DA
:1000800069007300740075006D0070002E0063003D
:100090006F006D0004030904E20211241FBECFE5C6
:1000A000D2E0DEBFCDBF10E0A0E6B0E0E6E5FAE0CA
:1000B00002C005900D92AC36B107D9F721E0ACE64D
:1000C000B0E001C01D92AD3BB207E1F710E0CDE416
:1000D000D0E003C02197FE01B6D4CC34D107D1F7CC
:1000E00018D4B7C48DCFA82FB92F80E090E041E09D
:1000F00050EA609530E009C02D9182279795879549
:1001000010F084279527305EC8F36F5FA8F3089539
:10011000EADF8D939D930895A6E088279927AA95F5
:1001200069F00197E1F3B399FCCFB39BFECF81E077
:100130009927A6B3019611F0A871D9F70895CF9326
:10014000CFB7CF93C395B39BE9F7B39B10C0B39BD5
:100150000EC0B39B0CC0B39B0AC0B39B08C0B39B3B
:1001600006C0C091A001C395C093A001D5C00F9255
:10017000DF93C0919F01DD27C955DE4F012EB39B50
:1001800003C0DF910F90E1CF2F930F931F934F93F5
:100190002FEF4F6F06B303FB20F95F933F9350E0BF
:1001A0003BE065C016B30126502953FDC89556B3F0
:1001B000012703FB25F92F7306B3B1F05027102751
:1001C00013FB26F906B22230F0F000C016B3012767
:1001D00003FB27F90126502906B22430E8F54F77B2
:1001E000206816B30000F6CF50274F7D206206B27C
:1001F000102F000000C006B300265029102713FB63
:1002000026F906B2E2CF4F7B06B3206400C0DACFF6
:1002100001265029187106B269F14E7F2160012F25
:1002200016B328C0002650294D7F06B22260102F39
:1002300029C0012650294B7F06B22460012F2DC012
:1002400016B301265029477F2860000006B22EC051
:100250004F7E06B3206130C0422706B34993002683
:100260005029102706B24FEF13FB20F9297F16B350
:1002700079F2187159F10126502906B2012703FBC2
:1002800021F9237F06B371F2002650293150D0F0B6
:1002900006B2102713FB22F9277E16B351F201266E
:1002A0005029012703FB06B223F92F7C49F20000F5
:1002B00006B3102713FB24F90026502906B22F7924
:1002C00039F270CF10E21ABF002719C03B503195A8
:1002D000C31BD04010E21ABF0881033C09F10B3464
:1002E000F9F020919D011981110F1213EDCF4A8170
:1002F000441F093651F10D3211F0013E29F70093E8
:10030000A5013F915F914F911F910F912F91DF9127
:100310000F90CAB7C5FD16CFCF91CFBFCF9118951B
:100320002091A501222369F31091A301112379F5EE
:1003300034307AF13093A30120939E0110919F01F4
:100340003BE0311B30939F0124C00091A301013099
:10035000F4F40AE54F7049F43091610034FD1AC09D
:1003600000936100C6E8D1E019C03091910134FDDD
:1003700011C000939101C2E9D1E010C0052710E03F
:1003800000C021C0052710E0C89508BB14C03AE59D
:1003900001C032ED032EC0E0D0E032E017B31861A7
:1003A000C39A08B317BB58E120E84FEF20FF052799
:1003B00008BB279517951C3F28F700004552B0F75A
:1003C00020FF0527279508BB17951C3FB8F62991F4
:1003D0003A9561F7077E1091A401110F08BBC25036
:1003E000D04011F010939D0110E21ABF086017B3BE
:1003F000177E402F477E54E05A95F1F708BB17BB94
:1004000048BB7FCF8CE690E034C08CE690E042D0D1
:10041000892B39F08CE690E052D0682F8CE690E082
:1004200003D08CE690E035C0CF93DF93462FFC01DC
:1004300024813581F901E058FF4FC081D181CE017F
:10044000019660E870E0D8D2D901AE57BF4F6D91E8
:100450007C918617970751F0C20FD31F4883918371
:10046000808381E090E0DF91CF91089590E080E07B
:10047000FACFF8940CD2BB9A80E0815039F0E1E2D7
:10048000F1EA3197F1F700C00000F7CFBB987894FC
:100490000895EEC0FC0122813381F901E058FF4F3D
:1004A0008081918180589F4F2E573F4FF9012081C5
:1004B0003181821B930B60E870E09ED20895DC01CD
:1004C00012962D913C91F901EE57FF4F8081918159
:1004D000D901A058BF4F4D915C914817590769F059
:1004E000280F391FD9012C91019660E870E084D261
:1004F00091838083822F90E008958FEF9FEF08957E
:100500008091F3009091F40080589F4F2091F50066
:100510003091F600821B930B60E870E06DD2089575
:100520008091F5009091F6002091F3003091F40055
:100530002817390779F0FC01ED58FF4F208101960B
:1005400060E870E059D29093F6008093F500822F16
:1005500090E008958FEF9FEF0895CF93FC01808185
:100560008076803269F5C181C13079F4C9DF892B89
:1005700039F1D6DF8093720082E790E09093A20178
:100580008093A1018C2FCF910895C930C9F4209197
:10059000770130917801C901019660E870E02CD2B2
:1005A0004091790150917A018417950749F044816F
:1005B00029503F4FF9014083909378018093770150
:1005C000C0E0E0CFECE6F0E086E690E09183808347
:1005D00087EF90E09383828383E790E09583848321
:1005E0000895CF92DF92EF92FF920F931F93CF93D4
:1005F000DF9308E010E0C0E0D0E8DD2EDC0ED1BED5
:100600008BDD7C0184E3E81689E0F8060CF4CD2D3F
:10061000D6950150110989F78FEF8C0F81BF0C2FF0
:1006200010E00F5F1F4F84E3C82E89E0D82E81B7FA
:100630008017110659F054F0C1BFDF91CF911F917F
:100640000F91FF90EF90DF90CF90089565DD9C01B2
:100650002453394037FF03C09601281B390B2E1550
:100660003F0514F4C1B7790181B78F5F81BFDFCF38
:10067000CF93DF938091A301835087FD27C0909192
:100680009E019D3209F58830F9F480919F01CCE0FC
:10069000D0E0C81BD109C955DE4F83EC8093860199
:1006A0008AE58093610010927C018881807609F44C
:1006B00068C0CE0152DF9F81911104C09E819817BE
:1006C00008F4892F809360001092A301809161004B
:1006D00084FF3CC0809160008F3FC1F1C82F8930FA
:1006E00008F0C8E0982F9C1B9093600090918601C1
:1006F00028E89227909386018823E1F04091A10198
:100700005091A20180917C0186FFB8C0A7E8B1E0BA
:10071000FA019C2F84918D9331969150D9F72FEF48
:100720002C0F30E02F5F3F4F240F351F3093A20175
:100730002093A1016C2F87E891E0EADCCC5FCC30FC
:1007400019F08FEF80936000C093610084E196B34D
:10075000987131F48150D9F71092A40110929D0143
:10076000C1E08111C0E090917B01C91739F0882365
:1007700019F0F89436DF7894C0937B01DF91CF9124
:1007800008952A8110928F01998191110AC01092C7
:1007900090012FE831E082E03093A2012093A10183
:1007A0008ACF953029F42093A4012FE831E0F4CFCB
:1007B000963009F04CC09B81913059F486E590E069
:1007C0009093A2018093A10182E190E490937C0137
:1007D00072CF923041F484E390E09093A201809331
:1007E000A10182E2F2CF9330F1F4211108C084E933
:1007F00090E09093A2018093A10184E0E6CF2130A4
:1008000041F488E790E09093A2018093A1018CE1EC
:10081000DCCF2230D1F688E690E09093A20180935D
:10082000A10180E1D2CF913241F486E490E090932F
:10083000A2018093A10189E0C8CF923231F68EE106
:1008400090E09093A2018093A10186E1BECF983001
:1008500071F0993019F42093A601A7CF9A3059F07E
:100860009B3009F0A2CF9BE4909392019ECF26EAA1
:1008700031E081E091CF2FE831E0FBCFDA01E7E80A
:10088000F1E09C2F8D9181939150E1F748CFAC9A84
:100890008BB780628BBFE1E9F1E08BE481838AE56D
:1008A000808308950F931F93CF93DF93EC018B0107
:1008B000F80161918F01662341F0E881F98101908F
:1008C000F081E02DCE010995F3CFDF91CF911F91FB
:1008D0000F910895EF92FF920F931F93CF93DF93A1
:1008E0007C01EB018B01040F151FC017D10751F0DC
:1008F0006991D701ED91FC910190F081E02DC70144
:100900000995F3CFDF91CF911F910F91FF90EF9059
:10091000089559D077DD79DDFECF83B7887F83BF17
:100920008AB58C7F81608ABD83B7877F83BF83B799
:10093000887F836083BF089578941F920F920FB6CB
:100940000F9211242F933F938F939F93AF93BF9355
:1009500080917E0190917F01A0918001B0918101F1
:1009600030917D012CE7230F2D3728F02FEF230F37
:100970000196A11DB11D20937D0180937E0190936E
:100980007F01A0938001B0938101809182019091B9
:100990008301A0918401B09185010196A11DB11D33
:1009A0008093820190938301A0938401B093850189
:1009B000BF91AF919F918F913F912F910F900FBE5B
:1009C0000F901F901895789480B7806880BF80B78B
:1009D000806480BF8CB580648CBD8FEF8DBD80B787
:1009E000807F876080BF89B7846089BF96DF86B1CA
:1009F000876086B9379A089597FB072E16F40094FE
:100A000006D077FD08D00BD007FC05D03EF49095BA
:100A100081959F4F0895709561957F4F0895AA1B0A
:100A2000BB1B51E107C0AA1FBB1FA617B70710F0D9
:100A3000A61BB70B881F991F5A95A9F7809590950B
:100A4000BC01CD010895EE0FFF1F0590F491E02D3C
:060A50000994F894FFCFA9
:0C0A5600FF5A00000000140252046A0461
:00000001FF
