:1000000077C09BC0C7C099C0EAC497C096C095C0CE
:1000100094C093C092C091C090C08FC08EC0120196
:10002000010100000008C016DC27000101020001E8
:1000300005010905A1010901A100050109300931E6
:100040000933093409350936150026FF007508956E
:10005000068102C005091901291015002501750145
:1000600095108102C00902220001010080320904BA
:1000700000000103000000092101010001223500F8
:100080000705810308000A1201100100000008C0E2
:1000900016DC2700010102030124036400690067E4
:1000A0000069007300740075006D0070002E00631D
:1000B000006F006D003A004A006F007900100344A1
:1000C000006900670069004B00650079001C03644B
:1000D000006900670069007300740075006D0070AE
:1000E000002E0063006F006D000403090400290363
:1000F00011241FBECFE5D2E0DEBFCDBF10E0A0E6E9
:10010000B0E0E4E2FBE002C005900D92A436B10736
:10011000D9F720E0A4E6B0E001C01D92A93CB207E7
:10012000E1F710E0C8E7D0E003C02197FE01E5D475
:10013000C737D107D1F740D4F3C462CFA82FB92F66
:1001400080E090E041E050EA609530E009C02D91F8
:1001500082279795879510F084279527305EC8F3FE
:100160006F5FA8F30895EADF8D939D930895A6E04D
:1001700088279927AA9569F00197E1F3B399FCCFF5
:10018000B39BFECF81E09927A6B3019611F0A87129
:10019000D9F70895CF93CFB7CF93C395B39BE9F722
:1001A000B39B0BC0B39B09C0B39B07C0B39B05C0F7
:1001B000B39B03C0B39B01C0D5C00F92DF93C09126
:1001C000AC00DD27CD54DF4F012EB39B03C0DF9180
:1001D0000F90E6CF2F930F931F934F932FEF4F6FF7
:1001E00006B303FB20F95F933F9350E03BE065C00B
:1001F00016B30126502953FDC89556B3012703FBBA
:1002000025F92F7306B3B1F05027102713FB26F9F9
:1002100006B22230F0F000C016B3012703FB27F925
:100220000126502906B22430E8F54F77206816B32E
:100230000000F6CF50274F7D206206B2102F00003D
:1002400000C006B300265029102713FB26F906B27A
:10025000E2CF4F7B06B3206400C0DACF01265029DD
:10026000187106B269F14E7F2160012F16B328C0C4
:10027000002650294D7F06B22260102F29C001268A
:1002800050294B7F06B22460012F2DC016B30126E2
:100290005029477F2860000006B22EC04F7E06B36B
:1002A000206130C0422706B3499300265029102709
:1002B00006B24FEF13FB20F9297F16B379F21871BC
:1002C00059F10126502906B2012703FB21F9237FAA
:1002D00006B371F2002650293150D0F006B2102733
:1002E00013FB22F9277E16B351F20126502901276C
:1002F00003FB06B223F92F7C49F2000006B3102756
:1003000013FB24F90026502906B22F7939F270CF59
:1003100010E21ABF002719C03B503195C31BD040D3
:1003200010E21ABF0881033C09F10B34F9F0209167
:10033000AA001981110F1213EDCF4A81441F09360B
:1003400051F10D3211F0013E29F70093B1003F91B8
:100350005F914F911F910F912F91DF910F90CAB72D
:10036000C5FD1BCFCF91CFBFCF9118952091B10084
:10037000222369F31091AF00112379F534307AF11B
:100380003093AF002093AB001091AC003BE0311BE9
:100390003093AC0024C00091AF000130F4F40AE5C2
:1003A0004F7049F43091620034FD1AC0009362002E
:1003B000C3E9D0E019C030919E0034FD11C0009314
:1003C0009E00CFE9D0E010C0052710E000C021C09A
:1003D000052710E0C89508BB14C03AE501C032ED0E
:1003E000032EC0E0D0E032E017B31861C39A08B31F
:1003F00017BB58E120E84FEF20FF052708BB2795E2
:1004000017951C3F28F700004552B0F720FF05273D
:10041000279508BB17951C3FB8F629913A9561F7C7
:10042000077E1091B000110F08BBC250D04011F0F0
:100430001093AA0010E21ABF086017B3177E402F6E
:10044000477E54E05A95F1F708BB17BB48BB7FCFF6
:10045000DC01892B39F098E0EAE7F0E001900D9299
:100460009A95E1F788E0EAE7F0E0A2E7B0E00190D2
:100470000D928A95E1F70895CF92DF92EF92FF9265
:100480007BD1F4D26B017C014091650050916600F4
:1004900060916700709168002091600030E0220F49
:1004A000331F220F331FC901330FAA0BBB0BC41A12
:1004B000D50AE60AF70AC816D906EA06FB0678F056
:1004C000840F951FA61FB71F809365009093660049
:1004D000A0936700B093680081E08093690048E0D2
:1004E00050E062E770E08AE790E00DD3892B19F0C5
:1004F00081E08093690080916900882389F0809170
:100500009E0084FF0DC0109269008AE690E0A0DF93
:1005100068E08AE690E0FF90EF90DF90CF900AC10C
:10052000FF90EF90DF90CF900895FC018AE690E075
:100530009093AE008093AD0080818076803291F4FC
:100540008181813089F0823041F480E690E090939F
:10055000AE008093AD0081E008958A3019F4838164
:100560008093600080E0089588E00895FC01808118
:100570008076F9F491819630E9F49381913019F005
:10058000923261F00895809183009091840090935D
:10059000AE008093AD008091820008958091860026
:1005A000909187009093AE008093AD00809185007C
:1005B000089580E0089508954F925F926F927F9220
:1005C0008F929F92AF92BF92CF92DF92EF92FF9263
:1005D0004DD224E630E040E050E06DD220937A0026
:1005E00080E380937B0080E680937C0080E98093A9
:1005F0007D0080EB80937E0080EF80937F0036D279
:100600004B015C0182E3C82ED12CE12CF12C2ED2BF
:100610002B013C01C418D508E608F708C80CD91C02
:10062000EA1CFB1C84E690E027DF530142011C1406
:100630001D041E041F045CF3FF90EF90DF90CF9029
:10064000BF90AF909F908F907F906F905F904F90F2
:100650000895F894BB9A27EA86E99CE021508040EF
:100660009040E1F700C00000BB9880E390E09093D9
:1006700087008093860085E3809385008EE190E07B
:10068000909384008093830082E18093820089D1DB
:100690007894ECD160936500709366008093670056
:1006A000909368000895CF92DF92EF92FF920F939C
:1006B0001F93CF93DF9308E010E0C0E0D0E8DD2E79
:1006C000DC0ED1BE54DD7C0184E3E81689E0F80637
:1006D0000CF4CD2DD6950150110989F78FEF8C0FB1
:1006E00081BF0C2F10E00F5F1F4F84E3C82E89E0FD
:1006F000D82E81B78017110659F054F0C1BFDF9191
:10070000CF911F910F91FF90EF90DF90CF900895C0
:100710002EDD9C012453394037FF03C09601281B6E
:10072000390B2E153F0514F4C1B7790181B78F5FDE
:1007300081BFDFCFCF93C62F20919E0024FF18C02A
:1007400020919F0038E8232720939F002C2FFC0145
:10075000A0EAB0E081918D9321501216DCF36C2F4A
:1007600080EA90E000DDCC5FC0939E00CF910895B9
:100770002AE520939E00EACFCF93DF938091AF00CC
:10078000835087FD27C09091AB009D3209F58830DA
:10079000F9F48091AC00CCE0D0E0C81BD109CD5475
:1007A000DF4F83EC809393008AE580936200109280
:1007B00089008881807609F468C0CE01B6DE9F8109
:1007C000911104C09E81981708F4892F80936100CD
:1007D0001092AF008091620084FF3CC08091610064
:1007E0008F3FC1F1C82F893008F0C8E0982F9C1BBB
:1007F000909361009091930028E892279093930042
:100800008823E1F04091AD005091AE0080918900C5
:1008100086FFBEC0A4E9B0E0FA019C2F84918D93BD
:1008200031969150D9F72FEF2C0F30E02F5F3F4FCB
:10083000240F351F3093AE002093AD006C2F84E958
:1008400090E091DCCC5FCC3019F08FEF80936100A9
:10085000C093620084E196B3987131F48150D9F766
:100860001092B0001092AA00C1E08111C0E09091F6
:100870008800C91739F0882319F0F89414DF7894A8
:10088000C0938800DF91CF9108952A8110929C0037
:10089000998191110AC010929D002CE930E082E00C
:1008A0003093AE002093AD008ACF953029F4209389
:1008B000B0002CE930E0F4CF963009F052C09B81B3
:1008C000913059F487E890E09093AE008093AD00AA
:1008D00082E190E49093890072CF923041F485E6F2
:1008E00090E09093AE008093AD0082E2F2CF93301F
:1008F00041F5211108C089EE90E09093AE008093FD
:10090000AD0084E0E6CF213041F48DEC90E090938F
:10091000AE008093AD008CE1DCCF223041F48DEB52
:1009200090E09093AE008093AD0080E1D2CF233071
:1009300081F689E990E09093AE008093AD0084E267
:10094000C8CF913241F487E790E09093AE00809356
:10095000AD0089E0BECF923209F0BBCFCE0106DEFA
:10096000B8CF983071F0993019F42093B200A1CF2C
:100970009A3059F09B3009F09CCF9BE490939F00F4
:1009800098CF22EB30E081E08BCF2CE930E0FBCF39
:10099000DA01E4E9F0E09C2F8D9181939150E1F729
:1009A00042CFAC9A8BB780628BBFEEE9F0E08BE46C
:1009B00081838AE58083089565D0FDDDFDDDFECF6E
:1009C00083B7887F83BF8AB58C7F81608ABD83B7F8
:1009D000877F83BF83B7887F836083BF08957894C0
:1009E0001F920F920FB60F9211242F933F938F9364
:1009F0009F93AF93BF9380918B0090918C00A091B7
:100A00008D00B0918E0030918A002CE7230F2D3796
:100A100028F02FEF230F0196A11DB11D20938A000E
:100A200080938B0090938C00A0938D00B0938E00E8
:100A300080918F0090919000A0919100B0919200D0
:100A40000196A11DB11D80938F0090939000A093FB
:100A50009100B0939200BF91AF919F918F913F9180
:100A60002F910F900FBE0F901F9018952FB7F894ED
:100A700060918B0070918C0080918D0090918E0020
:100A80002FBF0895789480B7806880BF80B7806456
:100A900080BF8CB580648CBD8FEF8DBD80B7807FAB
:100AA000876080BF89B7846089BF8ADF86B187602D
:100AB00086B9379A0895A1E21A2EAA1BBB1BFD0125
:100AC0000DC0AA1FBB1FEE1FFF1FA217B307E4072D
:100AD000F50720F0A21BB30BE40BF50B661F771F85
:100AE000881F991F1A9469F7609570958095909565
:100AF0009B01AC01BD01CF010895EE0FFF1F0590D2
:100B0000F491E02D0994FB01DC0104C08D9101906A
:100B1000801921F441505040C8F7881B990B089563
:040B2000F894FFCF77
:040B240005FF5A006F
:00000001FF
