:100000008EC0B2C0DEC0B0C0A8C4AEC0ADC0ACC06F
:10001000ABC0AAC0A9C0A8C0A7C0A6C0A5C0050102
:100020000906A101050719E029E715002501750159
:1000300095088102950175082565190029658100DB
:10004000C02A2B2800000000000000000000000073
:100050000000000029000000002C9EB4A0A1A2A472
:1000600034A6A7A5AE362D3738271E1F2021222300
:10007000242526B333B62EB7B89F84858687888912
:100080008A8B8C8D8E8F9091929394959697989958
:100090009A9B9C9D2F3130A3AD35040506070809B6
:1000A0000A0B0C0D0E0F1011121314151617181938
:1000B0001A1B1C1DAFB1B0B509022200010100805E
:1000C00032090400000103010100092101010001BE
:1000D0002223000705810308000A12011001000015
:1000E0000008C016DB2700010102000110034400D4
:1000F0006900670069004B00650079001C0364001B
:100100006900670069007300740075006D0070007D
:100110002E0063006F006D0004030904C402112463
:100120001FBECFE5D2E0DEBFCDBF10E0A0E6B0E05D
:10013000E2E4FAE002C005900D92AC36B107D9F7BF
:1001400020E0ACE6B0E001C01D92A13BB207E1F7B0
:1001500010E0CFE8D0E003C02197FE016AD4CE388A
:10016000D107D1F7E7D36BC44BCFA82FB92F80E0CD
:1001700090E041E050EA609530E009C02D9182277F
:100180009795879510F084279527305EC8F36F5FA9
:10019000A8F30895EADF8D939D930895A6E088273C
:1001A0009927AA9569F00197E1F3B399FCCFB39B26
:1001B000FECF81E09927A6B3019611F0A871D9F777
:1001C0000895CF93CFB7CF93C395B39BE9F7B39B74
:1001D0000BC0B39B09C0B39B07C0B39B05C0B39BC7
:1001E00003C0B39B01C0D5C00F92DF93C0919400B0
:1001F000DD27C556DF4F012EB39B03C0DF910F9063
:10020000E6CF2F930F931F934F932FEF4F6F06B3AC
:1002100003FB20F95F933F9350E03BE065C016B3CA
:100220000126502953FDC89556B3012703FB25F934
:100230002F7306B3B1F05027102713FB26F906B22F
:100240002230F0F000C016B3012703FB27F9012686
:10025000502906B22430E8F54F77206816B3000025
:10026000F6CF50274F7D206206B2102F000000C04D
:1002700006B300265029102713FB26F906B2E2CF59
:100280004F7B06B3206400C0DACF012650291871D5
:1002900006B269F14E7F2160012F16B328C00026F7
:1002A00050294D7F06B22260102F29C00126502907
:1002B0004B7F06B22460012F2DC016B301265029B2
:1002C000477F2860000006B22EC04F7E06B3206133
:1002D00030C0422706B3499300265029102706B2A2
:1002E0004FEF13FB20F9297F16B379F2187159F1FA
:1002F0000126502906B2012703FB21F9237F06B30B
:1003000071F2002650293150D0F006B2102713FBAD
:1003100022F9277E16B351F201265029012703FB4B
:1003200006B223F92F7C49F2000006B3102713FB15
:1003300024F90026502906B22F7939F270CF10E245
:100340001ABF002719C03B503195C31BD04010E2A3
:100350001ABF0881033C09F10B34F9F02091920097
:100360001981110F1213EDCF4A81441F093651F143
:100370000D3211F0013E29F7009399003F915F91F2
:100380004F911F910F912F91DF910F90CAB7C5FD2B
:100390001BCFCF91CFBFCF911895209199002223E9
:1003A00069F310919700112379F534307AF1309385
:1003B000970020939300109194003BE0311B309301
:1003C000940024C0009197000130F4F40AE54F70C6
:1003D00049F43091610034FD1AC000936100CBE70D
:1003E000D0E019C03091860034FD11C00093860022
:1003F000C7E8D0E010C0052710E000C021C00527E5
:1004000010E0C89508BB14C03AE501C032ED032ED8
:10041000C0E0D0E032E017B31861C39A08B317BB4D
:1004200058E120E84FEF20FF052708BB27951795D7
:100430001C3F28F700004552B0F720FF05272795FD
:1004400008BB17951C3FB8F629913A9561F7077ECE
:1004500010919800110F08BBC250D04011F01093BA
:10046000920010E21ABF086017B3177E402F477E34
:1004700054E05A95F1F708BB17BB48BB7FCF0F93E9
:100480001F93CF93DF93EC01162F042F80918600EA
:1004900084FD08C0FED080E990E50197F1F700C027
:1004A0000000F4CF0A831B8362E0CE010296DF9145
:1004B000CF911F910F91CBC0CF93DF93EC01862F8B
:1004C0008850990BFC01EF5BFF4F6491862F90E001
:1004D000880F892F881F990B40E0892B09F040E293
:1004E0006F77CE01CCDF40E060E0CE01C8DF81E075
:1004F00090E0DF91CF9108958EE690E09093960082
:100500008093950080E0089508954F925F926F92D6
:100510007F928F929F92AF92BF92CF92DF92EF9293
:10052000FF9240E060E08CE690E0A9DF40E060E010
:100530008CE690E0A4DF58D24B015C0184EFC82E1A
:10054000DD24D394E12CF12C4FD22B013C01C418B3
:10055000D508E608F708C80CD91CEA1CFB1C99D082
:10056000530142011C141D041E041F046CF3FF9070
:10057000EF90DF90CF90BF90AF909F908F907F9043
:100580006F905F904F90089586E690E090936D0095
:1005900080936C00F894BB9A27EA86E99CE021508E
:1005A00080409040E1F700C00000BB9881D1789472
:1005B00010926F0010926E0062E08EE690E047C0ED
:1005C000CF92DF92EF92FF920F931F93CF93DF931F
:1005D00008E010E0C0E0D0E8DD2EDC0ED1BEDEDDAC
:1005E0007C0184E3E81689E0F8060CF4CD2DD6955D
:1005F0000150110989F78FEF8C0F81BF0C2F10E08C
:100600000F5F1F4F84E3C82E89E0D82E81B7801773
:10061000110659F054F0C1BFDF91CF911F910F9196
:10062000FF90EF90DF90CF900895B8DD9C012453A8
:10063000394037FF03C09601281B390B2E153F05A3
:1006400014F4C1B7790181B78F5F81BFDFCFCF933A
:10065000C62F2091860024FF18C02091870038E81B
:100660002327209387002C2FFC01A8E8B0E081917C
:100670008D9321501216DCF36C2F88E890E08ADD10
:10068000CC5FC0938600CF9108952AE52093860021
:10069000EACFCF93DF9380919700835087FD27C0E7
:1006A000909193009D3209F58830F9F4809194007F
:1006B000CCE0D0E0C81BD109C556DF4F83EC809356
:1006C0007B008AE5809361001092710088818076BA
:1006D00009F468C0CE0110DF9F81911104C09E8192
:1006E000981708F4892F80936000109297008091EA
:1006F000610084FF3CC0809160008F3FC1F1C82F32
:10070000893008F0C8E0982F9C1B9093600090916E
:100710007B0028E8922790937B008823E1F04091AA
:100720009500509196008091710086FFB8C0ACE7AB
:10073000B0E0FA019C2F84918D9331969150D9F7B6
:100740002FEF2C0F30E02F5F3F4F240F351F3093DA
:100750009600209395006C2F8CE790E01BDDCC5F1A
:10076000CC3019F08FEF80936000C093610084E17A
:1007700096B3987131F48150D9F710929800109285
:100780009200C1E08111C0E090917000C91739F06A
:10079000882319F0F89414DF7894C0937000DF91E7
:1007A000CF9108952A8110928400998191110AC0F5
:1007B0001092850024E830E082E030939600209388
:1007C00095008ACF953029F42093980024E830E0F2
:1007D000F4CF963009F04CC09B81913059F48AEDEA
:1007E00090E0909396008093950082E190E490933E
:1007F000710072CF923041F488EB90E090939600B4
:100800008093950082E2F2CF9330F1F4211108C079
:1008100088E191E0909396008093950084E0E6CF84
:10082000213041F48CEF90E09093960080939500F6
:100830008CE1DCCF2230D1F68CEE90E090939600E4
:100840008093950080E1D2CF913241F48AEC90E020
:10085000909396008093950089E0C8CF923231F64C
:100860008EE190E0909396008093950083E2BECF56
:10087000983071F0993019F420939A00A7CF9A30EC
:1008800059F09B3009F0A2CF9BE4909387009ECF54
:100890002AE930E081E091CF24E830E0FBCFDA01B3
:1008A000ECE7F0E09C2F8D9181939150E1F748CFD8
:1008B000AC9A8BB780628BBFE6E8F0E08BE4818373
:1008C0008AE5808308950F931F93CF93DF93EC0104
:1008D0008B01F80161918F01662341F0E881F98174
:1008E0000190F081E02DCE010995F3CFDF91CF91FA
:1008F0001F910F910895EF92FF920F931F93CF9343
:10090000DF937C01EB018B01040F151FC017D1078A
:1009100051F06991D701ED91FC910190F081E02DAA
:10092000C7010995F3CFDF91CF911F910F91FF90F0
:10093000EF90089565D0E8DDE8DDFECF83B7887FCE
:1009400083BF8AB58C7F81608ABD83B7877F83BF71
:1009500083B7887F836083BF089578941F920F9236
:100960000FB60F9211242F933F938F939F93AF93C2
:10097000BF938091730090917400A0917500B09125
:100980007600309172002CE7230F2D3728F02FEFDF
:10099000230F0196A11DB11D209372008093730057
:1009A00090937400A0937500B093760080917700C7
:1009B00090917800A0917900B0917A000196A11DE4
:1009C000B11D8093770090937800A0937900B09345
:1009D0007A00BF91AF919F918F913F912F910F908E
:1009E0000FBE0F901F9018952FB7F8946091730069
:1009F0007091740080917500909176002FBF0895DA
:100A0000789480B7806880BF80B7806480BF8CB5E1
:100A100080648CBD8FEF8DBD80B7807F876080BF85
:100A200089B7846089BF8ADF86B1876086B9379AC3
:100A30000895EE0FFF1F0590F491E02D0994F894AE
:020A4000FFCFE6
:0C0A4200FF5A000000005C0263047B040B
:00000001FF
