:100000005BC07FC0ABC07DC054C67BC07AC079C026
:1000100078C077C076C075C074C073C072C0090262
:1000200043000201008032090400000102020100C5
:100030000524001001042402020524060001052401
:10004000010301070583030800FF09040100020AF8
:1000500000000007050102080000070581020800F2
:10006000001201100102000008D0167E08000101F4
:1000700002000122034400690067006900730070F8
:1000800000610072006B002000530065007200697F
:100090000061006C001C0364006900670069007364
:1000A00000740075006D0070002E0063006F006D1D
:1000B0000004030904005D0411241FBECFE5D2E053
:1000C000DEBFCDBF10E0A0E6B0E0EAE9FDE002C08F
:1000D00005900D92AE37B107D9F721E0AEE7B0E059
:1000E00001C01D92A033B207E1F710E0CCE5D0E0EB
:1000F00003C02197FE0149D6CB35D107D1F7C6D52C
:100100004AC67ECFA82FB92F80E090E041E050EAA8
:10011000609530E009C02D9182279795879510F062
:1001200084279527305EC8F36F5FA8F30895EADF50
:100130008D939D930895A6E088279927AA9569F045
:100140000197E1F3B399FCCFB39BFECF81E09927F0
:10015000A6B3019611F0A871D9F70895CF93CFB740
:10016000CF93C395B39BE9F7B39B0BC0B39B09C077
:10017000B39B07C0B39B05C0B39B03C0B39B01C037
:10018000D8C00F92DF93C0910701DD27C25FDE4F19
:10019000012EB39B03C0DF910F90E6CF2F930F93F7
:1001A0001F934F932FEF4F6F06B303FB20F95F931D
:1001B0003F9350E03BE065C016B30126502953FD44
:1001C000C89556B3012703FB25F92F7306B3B1F089
:1001D0005027102713FB26F906B22230F0F000C09A
:1001E00016B3012703FB27F90126502906B2243054
:1001F000E8F54F77206816B30000F6CF50274F7D03
:10020000206206B2102F000000C006B3002650295D
:10021000102713FB26F906B2E2CF4F7B06B320640A
:1002200000C0DACF01265029187106B269F14E7F5D
:100230002160012F16B328C0002650294D7F06B239
:100240002260102F29C0012650294B7F06B224605E
:10025000012F2DC016B301265029477F28600000CA
:1002600006B22EC04F7E06B3206130C0422706B3CF
:10027000499300265029102706B24FEF13FB20F9AF
:10028000297F16B379F2187159F10126502906B267
:10029000012703FB21F9237F06B371F200265029C1
:1002A0003150D0F006B2102713FB22F9277E16B387
:1002B00051F201265029012703FB06B223F92F7CB6
:1002C00049F2000006B3102713FB24F90026502939
:1002D00006B22F7939F270CF10E21ABF00271CC086
:1002E0003B503195C31BD04010E21ABF0881033C3C
:1002F00021F10B3411F1209105011981110F121315
:10030000EDCF4A81441F093669F10D3211F0013EEB
:1003100029F74F7009F0042F00930C013F915F9172
:100320004F911F910F912F91DF910F90CAB7C5FD8B
:1003300018CFCF91CFBFCF91189520910C012223D8
:1003400069F310910A011123D1F53430D2F13093C1
:100350000A0120930601109107013BE0311B309305
:1003600007012FC000910A0101304CF50AE54F70DA
:1003700049F430916B0034FD25C000936B00CEEE44
:10038000D0E024C0433049F03091F90034FD1AC068
:100390000093F900CAEFD0E019C03091240134FD78
:1003A00011C000932401C5E2D1E010C0052710E080
:1003B00000C021C0052710E0C89508BB14C03AE56D
:1003C00001C032ED032EC0E0D0E032E017B3186177
:1003D000C39A08B317BB58E120E84FEF20FF052769
:1003E00008BB279517951C3F28F700004552B0F72A
:1003F00020FF0527279508BB17951C3FB8F62991C4
:100400003A9561F7077E10910B01110F08BBC2509E
:10041000D04011F01093050110E21ABF086017B325
:10042000177E402F477E54E05A95F1F708BB17BB63
:1004300048BB74CF8EE790E028C18EE790E076D17C
:10044000892B39F08EE790E07AD1682F8EE790E023
:1004500028D14AE050E060E070E08EE790E0DDC037
:10046000F894EEECF0E08EEA90E091838083938341
:100470008283958384838EEC90E09783868380E2E9
:1004800090E09187808713861286789408952FB71D
:10049000F8948091D8009091D9002FBF892B39F022
:1004A000E091D000F091D100808190E0089590E03B
:1004B00080E00895F89488B3877E88BBBB9A27EACA
:1004C00086E99CE0215080409040E1F700C00000A8
:1004D000BB9894D3E2EAF0E082E890E091838083D5
:1004E000938382839583848382EA90E097838683D3
:1004F00020E230E03187208713861286EEECF0E0B0
:100500008EEA90E0918380839383828395838483B2
:100510008EEC90E09783868331872087138612863E
:100520001092800010928100789408953BD22FB7EA
:10053000F8948091AC009091AD002FBF892B89F188
:10054000E091DA00E93068F581E08E0F8093DA00FF
:10055000F0E0A091A400B091A5002D91B093A5006A
:10056000A093A4008091A8009091A900A817B907B2
:1005700041F48091A6009091A7009093A5008093EC
:10058000A4003FB7F8948091AC009091AD00019722
:100590009093AD008093AC003FBFE552FF4F2083A6
:1005A000C6CF8091F90084FF0AC080918100882322
:1005B000D1F060E08BED90E0EFD11092810080915E
:1005C0008000882379F09091240194FF0BC0823041
:1005D000C9F468E080E690E0E2D18091800081502B
:1005E0008093800008956091DA00662341F38BEDDB
:1005F00090E0D2D110920A0181E0809381001092A4
:10060000DA00DDCF62E088E690E0E6CFECE1F0E1F1
:100610003197F1F700C0000089CF4F925F926F923F
:100620007F928F929F92AF92BF92CF92DF92EF9282
:10063000FF92CF93DF93EC016A017B0181D34B01E1
:100640005C011C141D041E041F0484F479D32B01C7
:100650003C01C418D508E608F708C80CD91CEA1CE8
:10066000FB1CCE01D3DF53014201EBCFDF91CF91D1
:10067000FF90EF90DF90CF90BF90AF909F908F90C2
:100680007F906F905F904F900895CF93DF93EC0130
:1006900011DF44EF51E060E070E0CE01DF91CF91D7
:1006A000BCCF4FB7F8942091AC003091AD004FBF54
:1006B0004091AA005091AB004217530721F4A6DFE6
:1006C00090E080E00895E091A200F091A3006083A3
:1006D0002091A2003091A3002F5F3F4F3093A300E1
:1006E0002093A2004091A8005091A900241735073B
:1006F00041F42091A6003091A7003093A3002093ED
:10070000A2004FB7F8942091AC003091AD002F5F5C
:100710003F4F3093AD002093AC004FBF45E050E019
:1007200060E070E07ADF81E090E008956FDF2FB73E
:10073000F8948091D8009091D9002FBF08954FB7B9
:10074000F8942091D8003091D9004FBF232B21F489
:100750005DDF90E080E0089559DFE091D000F091F6
:10076000D1008191F093D100E093D0002091D4008A
:100770003091D500E217F30741F42091D200309177
:10078000D3003093D1002093D0009FB7F8942091EC
:10079000D8003091D900215031093093D9002093ED
:1007A000D8009FBF90E00895FC018381813049F417
:1007B00081E690E0909309018093080180916100A7
:1007C00008958EE190E0909309018093080183E4FD
:1007D0000895FC019081892F8076803211F080E0AD
:1007E0000895818120EE280F223078F0823239F48A
:1007F00080918000811103C082E08093800097FD8A
:10080000EECF81E080938100EACF8FEF089587E0FB
:10081000089581E0089530E020E0261708F040C0F8
:100820007FB7F8944091D8005091D9007FBFE091F4
:10083000D600F091D700E417F50779F1FC01E20F3B
:10084000F31F4081E091CE00F091CF0040834091B2
:10085000CE005091CF004F5F5F4F5093CF00409339
:10086000CE00E091D400F091D5004E175F0741F41F
:100870004091D2005091D3005093CF004093CE00CE
:100880007FB7F8944091D8005091D9004F5F5F4FE7
:100890005093D9004093D8007FBF2F5F3F4FBDCF0B
:1008A0002FB7F8948091D8009091D9002FBF089766
:1008B00018F08FEF80930A01089580E790E09093FD
:1008C0007F0080937E000895CF92DF92EF92FF9297
:1008D0000F931F93CF93DF9308E010E0C0E0D0E8C0
:1008E000DD2EDC0ED1BE27DC7C0184E3E81689E036
:1008F000F8060CF4CD2DD6950150110989F78FEF2C
:100900008C0F81BF0C2F10E00F5F1F4F84E3C82EA8
:1009100089E0D82E81B78017110659F054F0C1BF75
:10092000DF91CF911F910F91FF90EF90DF90CF90CB
:10093000089501DC9C012453394037FF03C0960120
:10094000281B390B2E153F0514F4C1B7790181B767
:100950008F5F81BFDFCF1F93CF93DF93162FEA0105
:10096000288124FF16C0298138E823272983212FD5
:10097000FC01CE010296DC0131913D93215012160B
:10098000DCF3612FD4DB1C5F1883DF91CF911F91C3
:1009900008952AE52883EBCF49EF50E0DCCF44E20D
:1009A00051E0D9CFCF93DF9360910A01635067FD87
:1009B00015C080910701CCE0D0E0C81BD109C25F0F
:1009C000DE4F80910601803108F052C0CE0123DF56
:1009D00080910A01181614F410920A0180916B009C
:1009E00084FF2BC0C0916A00CF3F39F16C2FC93012
:1009F00008F068E08C2F861B80936A008091EE00DF
:100A000098E889278093EE00CC2359F08091E40088
:100A100087FFCAC08FEE90E0FADEC82F893008F059
:100A2000E8C06C2F8FEE90E082DBCC5FCC3019F009
:100A30008FEF80936A00C0936B0084E196B3987146
:100A400031F48150D9F710920B0110920501C1E0E9
:100A50008111C0E09091E300C91739F0882319F0A3
:100A6000F89432DF7894C093E300DF91CF9108953A
:100A70008D3209F087C0683009F0AACF83EC8093EB
:100A8000EE008AE580936B001092E4008881807606
:100A900069F0CE019EDE8F3FC1F4988197FD8E8173
:100AA00090E89093E40080936A0092CF2A8110929C
:100AB000F7009981911111C01092F80027EF30E0F2
:100AC00082E030930901209308019F819111EBCFBF
:100AD0009E81981740F7892FE6CF953029F420930F
:100AE0000B0127EF30E0EDCF963099F59B819130E7
:100AF00059F481E690E0909309018093080182E126
:100B000090E49093E400C7CF923019F4CE014CDE0C
:100B1000F7CF9330A9F7211108C081EB90E09093B3
:100B200009018093080184E0EBCF213041F485E98D
:100B300090E090930901809308018CE1E1CF22308D
:100B4000F9F683E790E0909309018093080182E22F
:100B5000D7CF983081F0993019F420930D01C1CF8F
:100B60009A3069F09B3009F0BCCF9BE49093FA0077
:100B700090932501B6CF2DE031E081E0A2CF27EFA1
:100B800030E0FBCF8091E40087FF22CFCE0141DE31
:100B90008F3F21F48EE180936B001ACF882309F4F4
:100BA00017CF10926A0014CF4091080150910901AB
:100BB00086FF16C0AFEEB0E0FA01962F84918D93B8
:100BC00031969150D9F72FEF260F30E02F5F3F4F2E
:100BD000240F351F3093090120930801C62F21CF20
:100BE000DA01EFEEF0E0962F8D9181939150E1F7CD
:100BF000EACF8FEF80936A00CEE11DCFAC9A8BB71E
:100C000080628BBFA9EFB0E08BE411968C931197B3
:100C1000E4E2F1E081838AE58C93808308950F9369
:100C20001F93CF93DF93EC018B01F80161918F014A
:100C3000662341F0E881F9810190F081E02DCE0139
:100C40000995F3CFDF91CF911F910F910895EF9206
:100C5000FF920F931F93CF93DF937C01EB018B01E6
:100C6000040F151FC017D10751F06991D701ED91FD
:100C7000FC910190F081E02DC7010995F3CFDF9140
:100C8000CF911F910F91FF90EF90089565D0D2DB27
:100C9000D4DBFECF83B7887F83BF8AB58C7F81602A
:100CA0008ABD83B7877F83BF83B7887F836083BF15
:100CB000089578941F920F920FB60F9211242F93DC
:100CC0003F938F939F93AF93BF938091E600909152
:100CD000E700A091E800B091E9003091E5002CE731
:100CE000230F2D3728F02FEF230F0196A11DB11DE3
:100CF0002093E5008093E6009093E700A093E8003E
:100D0000B093E9008091EA009091EB00A091EC0093
:100D1000B091ED000196A11DB11D8093EA00909362
:100D2000EB00A093EC00B093ED00BF91AF919F91C9
:100D30008F913F912F910F900FBE0F901F9018959C
:100D40002FB7F8946091E6007091E7008091E80079
:100D50009091E9002FBF0895789480B7806880BF94
:100D600080B7806480BF8CB580648CBD8FEF8DBDF3
:100D700080B7807F876080BF89B7846089BF8ADF42
:100D800086B1876086B9379A0895EE0FFF1F0590E8
:0A0D9000F491E02D0994F894FFCFD0
:100D9A00A1200000000002000300FF5A000000002A
:0E0DAA0051030F06270696039F0347023002EF
:00000001FF
