:1000000076C09AC0C6C098C040C596C095C094C07E
:1000100093C092C091C090C08FC08EC08DC012019D
:10002000010100000008C016DA27000101020001EA
:1000300005010902A1010901A1000509190129030E
:100040001500250195037501810295017505810152
:100050000501093009311581257F75089502810652
:10006000093895018106C0C0090222000101008003
:100070003209040000010300000009210101000110
:100080002238000705810308000A12011001000050
:100090000008C016DA2700010102030128036D00E1
:1000A000690064006F006D0069006E0069006F00F8
:1000B0002E0063006F006D003A004D006F00750068
:1000C00073006500140355005300420020004D00EA
:1000D0006F007500730065001003670065006E0017
:1000E000650072006900630004030904960311248B
:1000F0001FBECFE5D2E0DEBFCDBF10E0A0E6B0E08E
:10010000ECE8FBE002C005900D92A436B107D9F7E8
:1001100020E0A4E6B0E001C01D92AD3BB207E1F7DC
:1001200010E0C7E7D0E003C02197FE011AD5C6371B
:10013000D107D1F797D428C563CFA82FB92F80E076
:1001400090E041E050EA609530E009C02D918227AF
:100150009795879510F084279527305EC8F36F5FD9
:10016000A8F30895EADF8D939D930895A6E088276C
:100170009927AA9569F00197E1F3B399FCCFB39B56
:10018000FECF81E09927A6B3019611F0A871D9F7A7
:100190000895CF93CFB7CF93C395B39BE9F7B39BA4
:1001A0000BC0B39B09C0B39B07C0B39B05C0B39BF7
:1001B00003C0B39B01C0D5C00F92DF93C091A000D4
:1001C000DD27C955DF4F012EB39B03C0DF910F9090
:1001D000E6CF2F930F931F934F932FEF4F6F06B3DD
:1001E00003FB20F95F933F9350E03BE065C016B3FB
:1001F0000126502953FDC89556B3012703FB25F965
:100200002F7306B3B1F05027102713FB26F906B25F
:100210002230F0F000C016B3012703FB27F90126B6
:10022000502906B22430E8F54F77206816B3000055
:10023000F6CF50274F7D206206B2102F000000C07D
:1002400006B300265029102713FB26F906B2E2CF89
:100250004F7B06B3206400C0DACF01265029187105
:1002600006B269F14E7F2160012F16B328C0002627
:1002700050294D7F06B22260102F29C00126502937
:100280004B7F06B22460012F2DC016B301265029E2
:10029000477F2860000006B22EC04F7E06B3206163
:1002A00030C0422706B3499300265029102706B2D2
:1002B0004FEF13FB20F9297F16B379F2187159F12A
:1002C0000126502906B2012703FB21F9237F06B33B
:1002D00071F2002650293150D0F006B2102713FBDE
:1002E00022F9277E16B351F201265029012703FB7C
:1002F00006B223F92F7C49F2000006B3102713FB46
:1003000024F90026502906B22F7939F270CF10E275
:100310001ABF002719C03B503195C31BD04010E2D3
:100320001ABF0881033C09F10B34F9F020919E00BB
:100330001981110F1213EDCF4A81441F093651F173
:100340000D3211F0013E29F70093A5003F915F9116
:100350004F911F910F912F91DF910F90CAB7C5FD5B
:100360001BCFCF91CFBFCF9118952091A50022230D
:1003700069F31091A300112379F534307AF13093A9
:10038000A30020939F001091A0003BE0311B30930D
:10039000A00024C00091A3000130F4F40AE54F70DE
:1003A00049F43091620034FD1AC000936200C7E83E
:1003B000D0E019C03091920034FD11C0009392003A
:1003C000C3E9D0E010C0052710E000C021C0052718
:1003D00010E0C89508BB14C03AE501C032ED032E09
:1003E000C0E0D0E032E017B31861C39A08B317BB7E
:1003F00058E120E84FEF20FF052708BB2795179508
:100400001C3F28F700004552B0F720FF052727952D
:1004100008BB17951C3FB8F629913A9561F7077EFE
:100420001091A400110F08BBC250D04011F01093DE
:100430009E0010E21ABF086017B3177E402F477E58
:1004400054E05A95F1F708BB17BB48BB7FCF009724
:1004500069F0409172005091730060917400709146
:100460007500FC0140835183628373838091720025
:1004700090917300A0917400B091750080936E000C
:1004800090936F00A0937000B09371000895E2E71D
:10049000F0E0118212821382EEE6F0E01182128205
:1004A00013820895CF92DF92EF92FF92BBD134D3A3
:1004B0006B017C014091650050916600609167007E
:1004C000709168002091600030E0220F331F220FEE
:1004D000331FC901330FAA0BBB0BC41AD50AE60A96
:1004E000F70AC816D906EA06FB0678F0840F951FAE
:1004F000A61FB71F8093650090936600A0936700C6
:10050000B093680081E08093690044E050E06EE6BB
:1005100070E082E790E02BD3892B19F081E0809383
:10052000690080916900882391F08091920084FF96
:100530000EC0109269008AE690E089DFA8DF64E0CF
:100540008AE690E0FF90EF90DF90CF9049C1FF9056
:10055000EF90DF90CF9008954F925F926F927F92CD
:100560008F929F92AF92BF92CF92DF92EF92FF92C3
:10057000CF93DF93EC016A017B01CED24B015C018A
:100580001C141D041E041F0484F4C6D22B013C015C
:10059000C418D508E608F708C80CD91CEA1CFB1CCF
:1005A000CE0180DF53014201EBCFDF91CF91FF906D
:1005B000EF90DF90CF90BF90AF909F908F907F9003
:1005C0006F905F904F900895FC018AE690E09093C1
:1005D000A2008093A10080818076803291F4818195
:1005E000813089F0823041F480E690E09093A2005F
:1005F0008093A10081E008958A3019F4838180936B
:10060000600080E0089584E00895FC018081807698
:10061000F9F491819630E9F49381913019F0923296
:1006200061F0089580917700909178009093A200F6
:100630008093A10080917600089580917A00909136
:100640007B009093A2008093A1008091790008958F
:1006500080E00895EF92FF920F931F93CF93DF9363
:100660007A01D82F803809F4D1E8C62F603809F410
:10067000C1E810E000E00E151F0584F4D09373006C
:10068000C09374001092750049E150E060E070E0A2
:1006900084E690E061DF0F5F1F4FEDCFDF91CF91D8
:1006A0001F910F91FF90EF900895F894BB9A2FE15E
:1006B00082E19AE0215080409040E1F700C00000C4
:1006C000BB98C5D1789428D260936500709366007A
:1006D000809367009093680040ED57E060E070E021
:1006E00084E690E039CF46E050E070E060E084E0DE
:1006F00090E0B0DF46E050E064E070E090E080E041
:10070000A9DF46E050E070E060E08CEF9FEFA2DFF1
:1007100046E050E06CEF7FEF90E080E09BDF48E840
:1007200053E160E070E084E690E016CF80E390E073
:1007300090937B0080937A0088E3809379008EE128
:1007400090E0909378008093770082E18093760028
:100750000895CF92DF92EF92FF920F931F93CF9362
:10076000DF9308E010E0C0E0D0E8DD2EDC0ED1BE63
:10077000FDDC7C0184E3E81689E0F8060CF4CD2D5D
:10078000D6950150110989F78FEF8C0F81BF0C2F7F
:1007900010E00F5F1F4F84E3C82E89E0D82E81B789
:1007A0008017110659F054F0C1BFDF91CF911F910E
:1007B0000F91FF90EF90DF90CF900895D7DC9C01D0
:1007C0002453394037FF03C09601281B390B2E15DF
:1007D0003F0514F4C1B7790181B78F5F81BFDFCFC7
:1007E000CF93C62F2091920024FF18C02091930030
:1007F00038E82327209393002C2FFC01A4E9B0E0D4
:1008000081918D9321501216DCF36C2F84E990E0D6
:10081000A9DCCC5FC0939200CF9108952AE5209384
:100820009200EACFCF93DF938091A300835087FD9E
:1008300027C090919F009D3209F58830F9F480918E
:10084000A000CCE0D0E0C81BD109C955DF4F83EC34
:10085000809387008AE58093620010927D008881F2
:10086000807609F468C0CE01AFDE9F81911104C08B
:100870009E81981708F4892F809361001092A3003D
:100880008091620084FF3CC0809161008F3FC1F184
:10089000C82F893008F0C8E0982F9C1B9093610006
:1008A0009091870028E89227909387008823E1F0B1
:1008B0004091A1005091A20080917D0086FFBEC0B2
:1008C000A8E8B0E0FA019C2F84918D933196915065
:1008D000D9F72FEF2C0F30E02F5F3F4F240F351F3C
:1008E0003093A2002093A1006C2F88E890E03ADCBE
:1008F000CC5FCC3019F08FEF80936100C093620021
:1009000084E196B3987131F48150D9F71092A40024
:1009100010929E00C1E08111C0E090917C00C91747
:1009200039F0882319F0F89414DF7894C0937C0090
:10093000DF91CF9108952A811092900099819111B1
:100940000AC01092910020E930E082E03093A200CA
:100950002093A1008ACF953029F42093A40020E9A8
:1009600030E0F4CF963009F052C09B81913059F4B9
:100970008AE890E09093A2008093A10082E190E445
:1009800090937D0072CF923041F488E690E090938E
:10099000A2008093A10082E2F2CF933041F52111B1
:1009A00008C088EE90E09093A2008093A10084E0BC
:1009B000E6CF213041F488ED90E09093A20080933F
:1009C000A10080E1DCCF223041F484EC90E09093F0
:1009D000A2008093A10084E1D2CF233081F68CE97C
:1009E00090E09093A2008093A10088E2C8CF91325A
:1009F00041F48AE790E09093A2008093A10089E0FF
:100A0000BECF923209F0BBCFCE01FFDDB8CF983018
:100A100071F0993019F42093A600A1CF9A3059F0C3
:100A20009B3009F09CCF9BE49093930098CF26EAEB
:100A300030E081E08BCF20E930E0FBCFDA01E8E85D
:100A4000F0E09C2F8D9181939150E1F742CFAC9AC9
:100A50008BB780628BBFE2E9F0E08BE481838AE5AB
:100A60008083089565D021DE3EDEFECF83B7887F88
:100A700083BF8AB58C7F81608ABD83B7877F83BF40
:100A800083B7887F836083BF089578941F920F9205
:100A90000FB60F9211242F933F938F939F93AF9391
:100AA000BF9380917F0090918000A0918100B091D0
:100AB000820030917E002CE7230F2D3728F02FEF96
:100AC000230F0196A11DB11D20937E0080937F000E
:100AD00090938000A0938100B09382008091830066
:100AE00090918400A0918500B09186000196A11D8F
:100AF000B11D8093830090938400A0938500B093F0
:100B00008600BF91AF919F918F913F912F910F9050
:100B10000FBE0F901F9018952FB7F89460917F002B
:100B20007091800080918100909182002FBF089584
:100B3000789480B7806880BF80B7806480BF8CB5B0
:100B400080648CBD8FEF8DBD80B7807F876080BF54
:100B500089B7846089BF8ADF86B1876086B9379A92
:100B60000895EE0FFF1F0590F491E02D0994FB010D
:100B7000DC0104C08D910190801921F44150504056
:0C0B8000C8F7881B990B0895F894FFCF6C
:040B8C0005FF5A0007
:00000001FF
